:100000000C946A000C9487000C9487000C94870071
:100010000C9487000C9487000C9487000C94870044
:100020000C9487000C9487000C9487000C94250C8A
:100030000C9487000C9487000C9487000C94870024
:100040000C9487000C9487000C9487000C94870014
:100050000C948700150A190A1D0A210A250A290A83
:100060002D0A310A350A390A3D0A410A450A490A68
:100070004D0A510A550A590A5D0A610A650A690A58
:100080006D0A710A750A790A7D0A810A850A890A48
:100090008D0A910A9F0AA30AA70AAB0AAF0AB30AFC
:1000A000B70ABB0ABF0AC30AC70ACB0ACF0AD30AD8
:1000B000D70ADB0ADF0AE30AE70AEB0AEF0AF30AC8
:1000C000F70AFB0AFF0A030B070B0B0B0F0B130BB3
:1000D000170B1B0B11241FBECFE5D8E0DEBFCDBF31
:1000E00011E0A0E6B0E0E8EDFDE102C005900D9260
:1000F000A435B107D9F721E0A4E5B1E001C01D9214
:10010000A936B207E1F70E9497080C94EA0E0C9406
:10011000000078940E94250765E182E10E9486062E
:100120008093540118C060E080E00E94560889E77F
:1001300090E00E94A50760E081E00E94560889E8EF
:1001400090E00E94A50768E873E180E090E00E94DB
:10015000790B0E94D607809154018111E4CF0E944F
:100160006A088BE00E94410660E088E690E00E9409
:10017000BB0761E080E690E00E94BB0765E080E09D
:100180000E94560883E990E00E94A50760ED77E0A1
:1001900080E090E00E94790B0E94D6078BE990E006
:1001A0000E94A50760E081E00E9456088CEB90E079
:1001B0000E94A5076091750070917600809177008C
:1001C000909178000E94E30781E00E945A0783E43F
:1001D0000E945A0760ED77E080E090E00E94790B82
:1001E0000E94D6078CEA90E00E94A50760ED77E0B8
:1001F00080E090E00E94790B0E94D60788EB90E0A7
:100200000E94A50760E070E080E991E40E94E307A6
:1002100081E00E945A0783E40E945A0760E081E06F
:100220000E94560883EC90E00E94A50760E070E011
:100230008CE092E40E94E30781E00E945A0783E485
:100240000E945A0760ED77E080E090E00E94790B11
:100250000E94D6078EEC90E00E94A50760E081E046
:100260000E9456088AED90E00E94A50760ED77E0B5
:1002700080E090E00E94790B0E94D6078CEB90E022
:100280000E94A507609175007091760080917700BB
:10029000909178000E94E30781E00E945A0783E46E
:1002A0000E945A07ADC160917000709171008091F9
:1002B0007200909173000E94B30680935601809162
:1002C0005601823009F489C018F4813041F06BC1C5
:1002D000833009F400C18E3409F439C164C16091DE
:1002E000750070917600809177009091780020E001
:1002F00030E040E85FE30E94720C609375007093F9
:1003000076008093770090937800609175007091EB
:100310007600809177009091780020E030E04CE00A
:1003200052E40E94360E882324F180E090E0ACE095
:10033000B2E48093750090937600A0937700B09319
:10034000780060E081E00E94560883EC90E00E9413
:10035000A50760E070E08CE092E40E94E30781E092
:100360000E945A0783E40E945A0781E08093550156
:1003700018C0809155018130A1F460917500709191
:100380007600809177009091780020E030E04CE09A
:1003900052E40E94DE0C882324F40E94D6071092B7
:1003A000550160E080E00E9456088CEB90E00E94CE
:1003B000A50760917500709176008091770090910B
:1003C00078000E94E30781E00E945A0783E40E94BC
:1003D0005A078EE48093560113C1609175007091A5
:1003E0007600809177009091780020E030E040E83E
:1003F0005FE30E94710C60937500709376008093A8
:1004000077009093780060917500709176008091EC
:1004100077009091780020E030E040E951E40E94BC
:10042000DE0C181624F180E090E0A0E9B1E480939E
:10043000750090937600A0937700B093780060E009
:1004400081E00E94560888EB90E00E94A50760E0DA
:1004500070E080E991E40E94E30781E00E945A077E
:1004600083E40E945A0781E08093550118C080916F
:1004700055018130A1F460917500709176008091F2
:1004800077009091780020E030E040E951E40E944C
:10049000360E181624F40E94D6071092550160E01B
:1004A00080E00E9456088CEB90E00E94A5076091C6
:1004B00075007091760080917700909178000E948D
:1004C000E30781E00E945A0783E40E945A078EE402
:1004D0008093560195C00E94D6078BEE90E00E9453
:1004E000A50760E081E00E94560860917500709158
:1004F000760080917700909178000E94E30781E078
:100500000E945A0783E40E945A0760ED77E080E07A
:1005100090E00E94790B0E94D6078BEF90E00E943A
:10052000A50760E081E00E94560887E091E00E9404
:10053000A50760ED77E080E090E00E94790B0E94D3
:10054000D607109274008EE48093560159C00E9421
:10055000D60784E191E00E94A50760E081E00E9457
:1005600056088CEB90E00E94A50760917500709191
:10057000760080917700909178000E94E30781E0F7
:100580000E945A0783E40E945A07109274008EE476
:100590008093560160ED77E080E090E00E94790B57
:1005A0000E94D6072DC00E94D6078CE191E00E94E0
:1005B000A50760E081E00E9456088BE291E00E946E
:1005C000A50760ED77E080E090E00E94790B0E9443
:1005D000D6078CEB90E00E94A507609175007091A2
:1005E000760080917700909178000E94E30781E087
:1005F0000E945A0783E40E945A078EE480935601B2
:100600008091740081114FCE8EE48093560181E079
:10061000809374000895CF9360E080E00E945608B4
:1006200067E571E080E00E947A088AE391E00E9429
:10063000A50766E080E00E9456086091570170911E
:1006400058018091590190915A010E94E30781E07D
:100650000E945A0783E40E945A0760E081E00E94EA
:1006600056086091570170915801809159019091FD
:100670005A0120E030E040E951E40E94360E882320
:10068000ACF060915701709158018091590190919F
:100690005A0120E030E048EB51E40E94DE0C1816CD
:1006A0002CF085E491E00E94A50729C060915701D4
:1006B000709158018091590190915A0120E030E0E9
:1006C00040EF51E40E94360E8823ACF06091570150
:1006D000709158018091590190915A0120E030E0C9
:1006E0004CE052E40E94DE0C18162CF083E491E0FA
:1006F0000E94A50704C084E491E00E94A5076091D0
:100700005701709158018091590190915A0120919F
:1007100075003091760040917700509178000E94EA
:10072000360E18165CF48BE00E94450669E081E005
:100730000E94560880E00E945A071EC0609157012F
:10074000709158018091590190915A012091750042
:100750003091760040917700509178000E94DE0C35
:10076000882354F48BE00E94490669E081E00E94EE
:10077000560880E20E945A076091700070917100E3
:1007800080917200909173000E94B306809356018D
:1007900080915601843021F0853009F41BC252C289
:1007A0008BE00E9449060E94D6078CEA90E00E94E6
:1007B000A50760ED77E080E090E00E94790B0E9451
:1007C000D60788EB90E00E94A50760E070E080E922
:1007D00091E40E94E30781E00E945A0783E40E94AB
:1007E0005A0760E081E00E94560883EC90E00E9486
:1007F000A50760E070E08CE092E40E94E30781E0EE
:100800000E945A0783E40E945A0760ED77E080E077
:1008100090E00E94790B0E94D6078EEC90E00E9437
:10082000A50760E081E00E9456088AED90E00E94F2
:10083000A50760ED77E080E090E00E94790B0E94D0
:10084000D6078CEB90E00E94A5076091750070912F
:10085000760080917700909178000E94E30781E014
:100860000E945A0783E40E945A07AFC1609170004A
:100870007091710080917200909173000E94B30694
:100880008093560180915601823009F489C018F492
:10089000813041F06BC1833009F400C18E3409F41A
:1008A00039C164C1609175007091760080917700C4
:1008B0009091780020E030E040E85FE30E94720C05
:1008C0006093750070937600809377009093780022
:1008D000609175007091760080917700909178001A
:1008E00020E030E04CE052E40E94360E882324F1F0
:1008F00080E090E0ACE0B2E48093750090937600E5
:10090000A0937700B093780060E081E00E945608E1
:1009100083EC90E00E94A50760E070E08CE092E438
:100920000E94E30781E00E945A0783E40E945A076D
:1009300081E08093550118C0809155018130A1F468
:1009400060917500709176008091770090917800A9
:1009500020E030E04CE052E40E94DE0C882324F4D6
:100960000E94D6071092550160E080E00E94560870
:100970008CEB90E00E94A507609175007091760065
:1009800080917700909178000E94E30781E00E94B7
:100990005A0783E40E945A078EE48093560115C1DA
:1009A0006091750070917600809177009091780049
:1009B00020E030E040E85FE30E94710C6093750036
:1009C0007093760080937700909378006091750023
:1009D00070917600809177009091780020E030E06F
:1009E00040E951E40E94DE0C181624F180E090E00A
:1009F000A0E9B1E48093750090937600A09377000E
:100A0000B093780060E081E00E94560888EB90E0A7
:100A10000E94A50760E070E080E991E40E94E3078E
:100A200081E00E945A0783E40E945A0781E0809384
:100A3000550118C0809155018130A1F46091750075
:100A400070917600809177009091780020E030E0FE
:100A500040E951E40E94360E181624F40E94D6078D
:100A60001092550160E080E00E9456088CEB90E007
:100A70000E94A507609175007091760080917700C3
:100A8000909178000E94E30781E00E945A0783E476
:100A90000E945A078EE48093560197C00E94D607A1
:100AA0008BEE90E00E94A50760E081E00E9456086E
:100AB0006091750070917600809177009091780038
:100AC0000E94E30781E00E945A0783E40E945A07CC
:100AD00060ED77E080E090E00E94790B0E94D607FD
:100AE0008BEF90E00E94A50760E081E00E9456082D
:100AF00087E091E00E94A50760ED77E080E090E05C
:100B00000E94790B0E94D607109274008EE48093A5
:100B100056015BC00E94D60784E191E00E94A507C0
:100B200060E081E00E9456088CEB90E00E94A507EF
:100B300060917500709176008091770090917800B7
:100B40000E94E30781E00E945A0783E40E945A074B
:100B5000109274008EE48093560160ED77E080E09F
:100B600090E00E94790B0E94D6072FC00E94D60702
:100B70008CE191E00E94A50760E081E00E945608A8
:100B80008BE291E00E94A50760ED77E080E090E0C5
:100B90000E94790BCEE4C09356010E94D6078CEBDD
:100BA00090E00E94A5076091750070917600809199
:100BB0007700909178000E94E30781E00E945A0735
:100BC00083E40E945A07C0935601809174008111FA
:100BD0004DCE55C08BE00E94490680E090E0A0EA2F
:100BE000B1E48093750090937600A0937700B09362
:100BF00078000E94D6078BEE90E00E94A50760E087
:100C000081E00E9456086091750070917600809195
:100C10007700909178000E94E30781E00E945A07D4
:100C200083E40E945A0760ED77E080E090E00E9444
:100C3000790B0E94D60781E0809374008EE4809344
:100C400056011DC0809156018E34C9F00E94D6070E
:100C50008CE191E00E94A50760E081E00E945608C7
:100C60008BE291E00E94A50760ED77E080E090E0E4
:100C70000E94790B8EE4809356010E94D607CF9193
:100C8000089560E00E94ED08089561E00E94050A61
:100C9000089560E00E94050A08951F93CF93DF93A3
:100CA000D0E01EE42CC08091680160E08D0F0E94AE
:100CB000050AC0E01BC0809167018C0F0E941F0BCA
:100CC000811113C08D2F90E0FC01EE0FFF1FE80F84
:100CD000F91FE95BFE4FEC0FF11D10818091670158
:100CE0008C0F0E941F0B8823C9F3CF5FC33018F30A
:100CF0008091680161E08D0F0E94050ADF5FD330AB
:100D000090F2812FDF91CF911F9108951F93CF9380
:100D1000DF93282F30E0261B31092E5F3F4F25300F
:100D20003105E0F0D62F182F80936801609367019A
:100D3000C0E006C060E08C2F810F0E94ED08CF5FFD
:100D4000C330C0F3C0E006C062E08C2F8D0F0E945C
:100D5000ED08CF5FC330C0F380E001C081E0DF91D8
:100D6000CF911F910895CF92DF92EF92FF926B0186
:100D70007C0120E436E040E050E00E94A80E209381
:100D80005B01A8EEB3E0A70196010E94D00E0E947D
:100D90004E0C8EE406C00E944D068E3411F0805336
:100DA00004C090915C019130B1F3FF90EF90DF901F
:100DB000CF900895CF93C82F8BB38F709C2F907FC7
:100DC000892B8BBB60E081E00E94050A60E082E035
:100DD0000E94050A61E083E00E94050A61E070E07C
:100DE00080E090E00E94B30B60E083E00E94050A7F
:100DF00062E070E080E090E00E94790B2BB330E17C
:100E0000C39FC0011124922F9F70892B8BBB60E080
:100E100081E00E94050A60E082E00E94050A61E02C
:100E200083E00E94050A61E070E080E090E00E94AB
:100E3000B30B60E083E00E94050A63E070E080E0AD
:100E400090E00E94790BCF91089560E087E00E94C6
:100E5000ED0860E086E00E94ED0860E085E00E9419
:100E6000ED0860E084E00E94ED0860E083E00E940D
:100E7000ED0860E082E00E94ED0860E081E00E9401
:100E8000ED0864E170E080E090E00E94790B82E080
:100E90000E94DA0688E20E94DA068CE00E94DA06F6
:100EA00086E00E94DA0681E00E94DA0680E80E946D
:100EB000DA060895CF93C82F8BB38F709C2F907F45
:100EC000892B8BBB61E081E00E94050A60E082E033
:100ED0000E94050A61E083E00E94050A61E070E07B
:100EE00080E090E00E94B30B60E083E00E94050A7E
:100EF00062E070E080E090E00E94790B2BB330E17B
:100F0000C39FC0011124922F9F70892B8BBB61E07E
:100F100081E00E94050A60E082E00E94050A61E02B
:100F200083E00E94050A61E070E080E090E00E94AA
:100F3000B30B60E083E00E94050A62E070E080E0AD
:100F400090E00E94790BCF9108950F931F93CF9358
:100F5000DF938C01C0E0D0E003C00E945A072196C5
:100F6000F801EC0FFD1F80818111F7CFDF91CF9148
:100F70001F910F9108950F931F93CF938C01862F8C
:100F800090E00896880F880F880F0E94DA06C0E06C
:100F900007C0F801EC0FF11D80810E945A07CF5F56
:100FA000C830B8F3CF911F910F91089581E00E944E
:100FB000DA0661E070E080E090E00E94790B80E862
:100FC0000E94DA0608950F931F93CF93DF93CDB756
:100FD000DEB72A970FB6F894DEBF0FBECDBF20E074
:100FE00030E040E251E40E943B0E0E94550D10E0BB
:100FF00000E014C02AE030E040E050E00E94A80E7B
:10100000E1E0F0E0EC0FFD1FE10FF11D605D60839A
:10101000622F732F842F952F0F5F1F5F611571054E
:101020008105910539F78FEF810F90E012C0A1E0A3
:10103000B0E0AC0FBD1FA80FB11D2C91E1E0F0E0B6
:10104000EC0FFD1FE90FF11D30813C93208381508F
:101050009F5F981760F3802F90E0FC01319721E0AB
:1010600030E02C0F3D1FE20FF31F2081A1E0B0E024
:10107000AC0FBD1FA80FB91F2C932EE22083019641
:10108000E1E0F0E0EC0FFD1FE80FF91F1082CE0148
:1010900001960E94A5072A960FB6F894DEBF0FBEF0
:1010A000CDBFDF91CF911F910F910895811108C09D
:1010B000603130F4862F8F7080680E94DA060895C0
:1010C000813039F4603128F4862F8F70806C0E9453
:1010D000DA060895EF920F931F93E82E00E511E0D2
:1010E00020E040E061E080E00E949C081F910F91A9
:1010F000EF900895CF93DF93EB010E94DC08BC01D1
:1011000080E090E00E94840D20E030E046E153E46E
:101110000E943B0E2AE939E949E953E40E94E30CB5
:10112000688379838A839B83DF91CF9108950E949E
:1011300089000E940B03FDCFEF920F931F93CF9373
:10114000DF93C62FD22F62E00E94ED08C13011F06C
:10115000C33019F487B1806487B9C250C23018F423
:1011600087B1806887B9D13019F487B18F7D87B98D
:1011700086B1806886B9F8018081813319F486B11F
:10118000816086B9F8018181813319F486B182606A
:1011900086B9F8018281813319F486B1846086B9F9
:1011A000F1E0EF1203C086B1886086B9DF91CF917C
:1011B0001F910F91EF90089587B187B986B1806430
:1011C00086B9349BFECF86B18F7E86B924B185B1B6
:1011D00090E0982F8827822B0895613009F460C031
:1011E00020F0623009F4B7C00895883098F44AB30B
:1011F000877021E030E0B90102C0660F771F8A9541
:10120000E2F7CB01942F982B9ABB9BB3809589234F
:101210008BBB089598EF980F983098F447B3877078
:1012200021E030E0B90102C0660F771F8A95E2F72E
:10123000CB01942F982B97BB98B38095892388BBBB
:10124000089590EF980F983098F444B3877021E098
:1012500030E0B90102C0660F771F8A95E2F7CB0133
:10126000942F982B94BB95B38095892385BB0895C3
:1012700098EE980F983008F0C7C041B3877021E00E
:1012800030E0B90102C0660F771F8A95E2F7CB0103
:10129000942F982B91BB92B38095892382BB08959C
:1012A000883098F44AB3877021E030E0B90102C079
:1012B000660F771F8A95E2F7CB018095942F9823CC
:1012C0009ABB9BB389238BBB089598EF980F9830F6
:1012D00098F447B3877021E030E0B90102C0660F8F
:1012E000771F8A95E2F7CB018095942F982397BBBF
:1012F00098B3892388BB089590EF980F983098F49D
:1013000044B3877021E030E0B90102C0660F771F57
:101310008A95E2F7CB018095942F982394BB95B3DF
:10132000892385BB089598EE980F983008F06CC01B
:1013300041B3877021E030E0B90102C0660F771F2A
:101340008A95E2F7CB018095942F982391BB92B3B5
:10135000892382BB0895883098F44AB3877021E0CE
:1013600030E0B90102C0660F771F8A95E2F7CB0122
:10137000962F909594239ABB9BB3892B8BBB089592
:1013800098EF980F983098F447B3877021E030E0D9
:10139000B90102C0660F771F8A95E2F7CB01962F3D
:1013A0009095942397BB98B3892B88BB089590EFB1
:1013B000980F983098F444B3877021E030E0B90179
:1013C00002C0660F771F8A95E2F7CB01962F9095A2
:1013D000942394BB95B3892B85BB089598EE980F01
:1013E000983090F441B3877021E030E0B90102C039
:1013F000660F771F8A95E2F7CB01962F909594237D
:1014000091BB92B3892B82BB0895662309F48DC0EA
:10141000613009F013C190E08032910508F00EC1EF
:10142000FC01E65DFF4F0C94CA0E8BB381608BBB51
:1014300008958BB382608BBB08958BB384608BBBA4
:1014400008958BB388608BBB08958BB380618BBB91
:1014500008958BB380628BBB08958BB380648BBB84
:1014600008958BB380688BBB089588B3816088BB77
:10147000089588B3826088BB089588B3846088BB70
:10148000089588B3886088BB089588B3806188BB5D
:10149000089588B3806288BB089588B3806488BB50
:1014A000089588B3806888BB089585B3816085BB43
:1014B000089585B3826085BB089585B3846085BB3C
:1014C000089585B3886085BB089585B3806185BB29
:1014D000089585B3806285BB089585B3806485BB1C
:1014E000089584B3806884BB089582B3816082BB11
:1014F000089582B3826082BB089582B3846082BB08
:10150000089582B3886082BB089582B3806182BBF4
:10151000089582B3806282BB089582B3806482BBE7
:10152000089582B3806882BB089590E0803291056F
:1015300008F084C0FC01E65BFF4F0C94CA0E8BB32D
:101540008E7F8BBB08958BB38D7F8BBB08958BB340
:101550008B7F8BBB08958BB3877F8BBB08958BB339
:101560008F7E8BBB08958BB38F7D8BBB08958BB320
:101570008F7B8BBB08958BB38F778BBB089588B31C
:101580008E7F88BB089588B38D7F88BB089588B30C
:101590008B7F88BB089588B3877F88BB089588B305
:1015A0008F7E88BB089588B38F7D88BB089588B3EC
:1015B0008F7B88BB089588B38F7788BB089585B3E8
:1015C0008E7F85BB089585B38D7F85BB089585B3D8
:1015D0008B7F85BB089585B3877F85BB089585B3D1
:1015E0008F7E85BB089585B38F7D85BB089585B3B8
:1015F0008F7B85BB089585B38F7785BB089582B3B4
:101600008E7F82BB089582B38D7F82BB089582B3A3
:101610008B7F82BB089582B3877F82BB089582B39C
:101620008F7E82BB089582B38F7D82BB089582B383
:101630008F7B82BB089582B38F7782BB08958830F9
:1016400060F499B3282F2770892F90E002C09595F8
:1016500087952A95E2F78170089598EF980F983052
:1016600060F496B3282F2770892F90E002C09595DB
:1016700087952A95E2F78170089590EF980F98303A
:1016800060F493B3282F2770892F90E002C09595BE
:1016900087952A95E2F78170089598EE980F983013
:1016A00060F490B3282F2770892F90E002C09595A1
:1016B00087952A95E2F78170089580E0089593B7A1
:1016C000892383BF62BF089593B7892B83BF089591
:1016D00082BF089513BE089595B5892385BD64BD65
:1016E000089595B5892B85BD089584BD089515BCD1
:1016F00008958F929F92AF92BF92CF92DF92EF9216
:10170000FF92CF934B015C0167E080E00E946C0B7D
:1017100082E00E94710BC12CD12C760113C008B657
:1017200006FEFDCF87E00E94750B88B7806488BFF6
:10173000CF5F01C0C0E0C43090F38FEFC81AD80A61
:10174000E80AF80AC814D904EA04FB0498F30E94D2
:10175000770BCF91FF90EF90DF90CF90BF90AF903D
:101760009F908F9008958F929F92AF92BF92CF9249
:10177000DF92EF92FF924B015C0167E080E00E94F4
:101780006C0B82E00E94710BC12CD12C76010EC033
:1017900008B606FEFDCF8CE90E94750B88B7806401
:1017A00088BF8FEFC81AD80AE80AF80AC814D90403
:1017B000EA04FB0468F30E94770BFF90EF90DF9040
:1017C000CF90BF90AF909F908F90089590936601B7
:1017D0008093650108956FE080E00E945F0B89B7F8
:1017E000816089BF8DEF9BE00E94E60B08950E9407
:1017F0006A0B89B78E7F89BF089580915D019091B2
:101800005E01A0915F01B09160010196A11DB11D23
:1018100080935D0190935E01A0935F01B09360019E
:101820004091610150916201609163017091640186
:1018300084179507A607B70721F410925C010E9450
:10184000F70B8FE00E94680B08951F920F920FB65E
:101850000F9211242F933F934F935F936F937F9336
:101860008F939F93AF93BF93EF93FF93E0916501A5
:10187000F0916601309709F00995FF91EF91BF91C2
:10188000AF919F918F917F916F915F914F913F9118
:101890002F910F900FBE0F901F90189521E020936D
:1018A0005C0110925D0110925E0110925F01109236
:1018B0006001DC01CB01880F991FAA1FBB1F880F95
:1018C000991FAA1FBB1F8093610190936201A0938F
:1018D0006301B09364010E94EB0B82E00E94640BF1
:1018E00008955058BB27AA270E94890C0C94FC0D20
:1018F0000E94EE0D38F00E94F50D20F039F49F3F64
:1019000019F426F40C94EB0D0EF4E095E7FB0C941F
:10191000E50DE92F0E940D0E58F3BA176207730701
:101920008407950720F079F4A6F50C942F0E0EF499
:10193000E0950B2EBA2FA02D0B01B90190010C01DF
:10194000CA01A0011124FF27591B99F0593F50F4F7
:10195000503E68F11A16F040A22F232F342F44274F
:10196000585FF3CF469537952795A795F040539547
:10197000C9F77EF41F16BA0B620B730B840BBAF017
:101980009150A1F0FF0FBB1F661F771F881FC2F782
:101990000EC0BA0F621F731F841F48F48795779596
:1019A0006795B795F7959E3F08F0B0CF9395880F50
:1019B00008F09927EE0F9795879508950E94C10D1D
:1019C00008F481E008950E94F70C0C94FC0D0E942D
:1019D000F50D58F00E94EE0D40F029F45F3F29F01C
:1019E0000C94E50D51110C94300E0C94EB0D0E94EB
:1019F0000D0E68F39923B1F3552391F3951B550B05
:101A0000BB27AA2762177307840738F09F5F5F4FD1
:101A1000220F331F441FAA1FA9F335D00E2E3AF010
:101A2000E0E832D091505040E695001CCAF72BD028
:101A3000FE2F29D0660F771F881FBB1F2617370779
:101A40004807AB07B0E809F0BB0B802DBF01FF27AB
:101A500093585F4F3AF09E3F510578F00C94E50D96
:101A60000C94300E5F3FE4F3983ED4F3869577955F
:101A70006795B795F7959F5FC9F7880F911D969564
:101A8000879597F90895E1E0660F771F881FBB1FC0
:101A9000621773078407BA0720F0621B730B840B6D
:101AA000BA0BEE1F88F7E09508950E94150E88F096
:101AB0009F5798F0B92F9927B751B0F0E1F0660F12
:101AC000771F881F991F1AF0BA95C9F714C0B13053
:101AD00091F00E942F0EB1E008950C942F0E672F05
:101AE000782F8827B85F39F0B93FCCF38695779582
:101AF0006795B395D9F73EF490958095709561956B
:101B00007F4F8F4F9F4F0895E89409C097FB3EF495
:101B100090958095709561957F4F8F4F9F4F99233A
:101B2000A9F0F92F96E9BB279395F69587957795B8
:101B30006795B795F111F8CFFAF4BB0F11F460FF78
:101B40001BC06F5F7F4F8F4F9F4F16C0882311F0D0
:101B500096E911C0772321F09EE8872F762F05C0E4
:101B6000662371F096E8862F70E060E02AF09A957F
:101B7000660F771F881FDAF7880F9695879597F974
:101B80000895990F0008550FAA0BE0E8FEEF16160E
:101B90001706E807F907C0F012161306E407F50761
:101BA00098F0621B730B840B950B39F40A2661F0D5
:101BB000232B242B252B21F408950A2609F4A14078
:101BC000A6958FEF811D811D089597F99F6780E885
:101BD00070E060E008959FEF80EC089500240A947F
:101BE0001616170618060906089500240A941216F8
:101BF0001306140605060895092E0394000C11F42B
:101C0000882352F0BB0F40F4BF2B11F460FF04C0D7
:101C10006F5F7F4F8F4F9F4F089557FD9058440F30
:101C2000551F59F05F3F71F04795880F97FB991F3B
:101C300061F09F3F79F087950895121613061406F8
:101C4000551FF2CF4695F1DF08C016161706180685
:101C5000991FF1CF86957105610508940895E89460
:101C6000BB2766277727CB0197F908950E94C10DFE
:101C700008F48FEF08950E944E0E0C94FC0D0E9404
:101C8000EE0D38F00E94F50D20F0952311F00C9424
:101C9000E50D0C94EB0D11240C94300E0E940D0EEA
:101CA00070F3959FC1F3950F50E0551F629FF001AF
:101CB000729FBB27F00DB11D639FAA27F00DB11DC8
:101CC000AA1F649F6627B00DA11D661F829F222751
:101CD000B00DA11D621F739FB00DA11D621F839FD8
:101CE000A00D611D221F749F3327A00D611D231FAE
:101CF000849F600D211D822F762F6A2F11249F57FC
:101D000050409AF0F1F088234AF0EE0FFF1FBB1FFE
:101D1000661F771F881F91505040A9F79E3F5105BD
:101D200080F00C94E50D0C94300E5F3FE4F3983E88
:101D3000D4F3869577956795B795F795E7959F5F67
:101D4000C1F7FE2B880F911D9695879597F90895F9
:101D5000A1E21A2EAA1BBB1BFD010DC0AA1FBB1FAF
:101D6000EE1FFF1FA217B307E407F50720F0A21B21
:101D7000B30BE40BF50B661F771F881F991F1A948E
:101D800069F760957095809590959B01AC01BD01B8
:101D9000CF010895EE0FFF1F0590F491E02D0994F7
:101DA0000E94DB0EA59F900DB49F900DA49F800D07
:101DB000911D11240895A29FB001B39FC001A39F5C
:101DC000700D811D1124911DB29F700D811D112474
:081DD000911D0895F894FFCF66
:101DD8000705070000000000040E0E0E1F00040097
:101DE80003000000010000A041546865204B65799C
:101DF8007061642050696E7300617265206572724B
:101E08006F720057656C636F6D6500446566617538
:101E18006C742074656D70206973200063686F6F3F
:101E280073652074656D70004D696E2054656D7022
:101E38003D20004D61782054656D703D20003129AA
:101E4800496E6372656D656E74003229446563720C
:101E5800656D656E74332973657400546865207305
:101E680065742054656D702069730054656D702029
:101E7800697320736574007375636365737366753E
:101E88006C6C790054696D656F757400546869737A
:101E9800206F7065726174696F6E006973206E6F70
:101EA8007420616C6C6F7765640054656D703D20BB
:101EB8002043002323230031323334353637383971
:041EC8003030310085
:00000001FF
